:100000000C94E6000C94DE040C94B7040C940E01DE
:100010000C940E010C940E010C940E010C940E0124
:100020000C940E010C9405050C940E010C942706FB
:100030000C940E010C940E010C940E010C940E0104
:100040000C946D040C940E010C9491020C946B02B0
:100050000C940E010C940E010C940E010C940E01E4
:100060000C940E010C940E01FF09350A460AEA09A8
:10007000150A220A530A00407A10F35A00A0724E61
:1000800018090010A5D4E80000E87648170000E43D
:100090000B54020000CA9A3B000000E1F505000085
:1000A00080969800000040420F000000A0860100EA
:1000B0000000102700000000E803000000006400BA
:1000C000000000000A000000000001000000000025
:1000D0002C76D888DC674F0823DFC1DFAE59E1B149
:1000E000B796E5E3E453C63AE651997696E8E6C258
:1000F0008426EB898C9B62ED407C6FFCEFBC9C9F5F
:1001000040F2BAA56FA5F490055A2AF75C936B6C80
:10011000F9676DC11BFCE0E40D47FEF520E6B50074
:10012000D0ED902E0300943577050080841E0800E2
:1001300000204E0A000000C80C333333330F986E92
:1001400012831141EF8D2114893BE65516CFFEE64F
:10015000DB18D1844B381BF77C1D901DA4BBE42415
:10016000203284725E228100C9F124ECA1E53D2792
:1001700000000000240027002A00000000002500E5
:1001800028002B00000000002300260029000404A2
:10019000040404040404020202020202030303032F
:1001A000030301020408102040800102040810200B
:1001B00001020408102000000008000201000003F2
:1001C000040700000000000000001B1411241FBEE3
:1001D000CFEFD8E0DEBFCDBF15E0A0E0B1E0E6EEA6
:1001E000F7E302C005900D92A039B107D9F726E0D8
:1001F000A0E9B5E001C01D92A438B207E1F710E014
:10020000C6EED0E004C02197FE010E94C51AC53E8B
:10021000D107C9F70E94B80D0C94F11B0C94000093
:10022000CF92DF92EF92FF920F931F93CF93DF93C2
:100230006C017A018B01C0E0D0E0CE15DF0581F0C2
:10024000D8016D918D01D601ED91FC910190F08165
:10025000E02DC6010995892B11F02196EECF7E0184
:10026000C701DF91CF911F910F91FF90EF90DF9029
:10027000CF900895089580E090E00895FC01538D9B
:10028000448D252F30E0842F90E0821B930B541770
:1002900010F0CF96089501970895FC01918D828DFD
:1002A000981761F0828DDF01A80FB11D5D968C91CA
:1002B000928D9F5F9F73928F90E008958FEF9FEFD5
:1002C0000895FC01918D828D981731F0828DE80F91
:1002D000F11D858D90E008958FEF9FEF0895FC014B
:1002E000918D228D892F90E0805C9F4F821B910918
:1002F0008F739927089582EB95E00E946F0121E0AA
:10030000892B09F420E0822F0895FC01848DDF0100
:10031000A80FB11DA35ABF4F2C91848D90E0019678
:100320008F739927848FA689B7892C93A089B18967
:100330008C9180648C93938D848D981306C0028871
:10034000F389E02D80818F7D80830895EF92FF9265
:100350000F931F93CF93DF93EC0181E0888F9B8DE8
:100360008C8D981305C0E889F989808185FD24C0AA
:10037000F62E0B8D10E00F5F1F4F0F731127E02E2D
:100380008C8DE8120CC00FB607FCFACFE889F9890A
:10039000808185FFF5CFCE010E948501F1CF8B8D45
:1003A000FE01E80FF11DE35AFF4FF0820B8FEA893F
:1003B000FB898081806207C0EE89FF896083E889BC
:1003C000F98980818064808381E090E0DF91CF9122
:1003D0001F910F91FF90EF900895CF93DF93EC0161
:1003E000888D8823C9F0EA89FB89808185FD05C055
:1003F000A889B9898C9186FD0FC00FB607FCF5CF8F
:10040000808185FFF2CFA889B9898C9185FFEDCFD6
:10041000CE010E948501E7CFDF91CF91089580E062
:1004200090E0892B29F00E947B0181110C9400003F
:100430000895833081F028F4813099F08230A1F062
:1004400008958730A9F08830B9F08430D1F48091D4
:1004500080008F7D03C0809180008F778093800023
:10046000089584B58F7702C084B58F7D84BD0895CB
:100470008091B0008F7703C08091B0008F7D809312
:10048000B00008953FB7F8948091A6059091A70514
:10049000A091A805B091A90526B5A89B05C02F3F3E
:1004A00019F00196A11DB11D3FBFBA2FA92F982F9A
:1004B0008827820F911DA11DB11DBC01CD0142E015
:1004C000660F771F881F991F4A95D1F708950895E1
:1004D00008950E94EC1B1F920F920FB60F921124E9
:1004E0002F933F934F935F936F937F938F939F933C
:1004F000AF93BF93EF93FF9382EB95E00E9485014A
:10050000FF91EF91BF91AF919F918F917F916F91EB
:100510005F914F913F912F910F900FBE0F901F90C1
:1005200018951F920F920FB60F9211242F938F934D
:100530009F93EF93FF93E091C205F091C3058081F3
:10054000E091C805F091C90582FD12C090818091AB
:10055000CB058F5F8F732091CC05821751F0E0910E
:10056000CB05F0E0EE54FA4F958F8093CB0501C098
:100570008081FF91EF919F918F912F910F900FBEEE
:100580000F901F901895CF93DF93282F30E0F9013B
:10059000EA54FE4F8491F901EE55FE4FD491F901D2
:1005A000E257FE4FC491CC2391F081110E941902B1
:1005B000EC2FF0E0EE0FFF1FEC57FE4FA591B4912A
:1005C000EC91ED2381E090E021F480E002C080E036
:1005D00090E0DF91CF9108951F93CF93DF93282F61
:1005E00030E0F901EA54FE4F8491F901EE55FE4FD7
:1005F000D491F901E257FE4FC491CC23C1F0162FDC
:1006000081110E941902EC2FF0E0EE0FFF1FE65857
:10061000FE4FA591B4919FB7F894111104C08C912D
:10062000D095D82302C0EC91DE2BDC939FBFDF91E5
:10063000CF911F910895CF93DF93FC0121AD32AD8F
:10064000232B51F422E030E034AF23AFFF9621E0BA
:1006500030E0318320830BC0EC0181E090E094AF67
:1006600083AF61E082810E94EC0281E08883DF91A8
:10067000CF910895CF92DF92FF920F931F93CF9364
:10068000DF93809192059091930501969093930545
:1006900080939205C0919405D091950502E010E0F9
:1006A0008AE0F82E209709F483C08981882309F411
:1006B00079C0CBACDCACC114D10409F470C021E02A
:1006C000C216D104A1F489AD9AAD01979AAF89AF52
:1006D000892B09F067C060E08A810E94EC021882D1
:1006E0001CAF0BAFFE01FF96D182C0825BC0FE0142
:1006F000FF9680819181019709F054C08DAD9EAD28
:1007000001979EAF8DAF892B09F04CC011830083F8
:100710008FA998AD019798AF8FAB0097A9F5339645
:1007200080818F5F8083DE01AF5BBF4F9C918081B2
:100730008917A4F012968D919C911197019639F02A
:100740008D919C911197019711969C938E938D9109
:100750009C91892B11F4198225C0108220813F2D94
:100760002303F0011124CF0103968C0F9D1F9EAB34
:100770008DABEC0FFD1F3396DE01D7968F2D0190C8
:100780000D928A95E1F70BC0EDA9FEA92AE0DE01E2
:10079000D79601900D922A95E1F798AF8FABCE01D5
:1007A0000E941B03CB5BDF4F0990D881C02D7ACF0D
:1007B000DF91CF911F910F91FF90DF90CF9008951F
:1007C000CF93DF9390E0FC01EE55FE4F2491FC01A6
:1007D000E257FE4F8491882361F190E0880F991FC2
:1007E000FC01E059FE4FC591D491FC01E658FE4F43
:1007F000A591B491611109C09FB7F89488812095A3
:1008000082238883EC912E230BC0623061F49FB762
:10081000F8948881322F309583238883EC912E2B96
:100820002C939FBF06C08FB7F894E8812E2B2883A6
:100830008FBFDF91CF9108958E3008F08E50877072
:10084000806480937C0080917A00806480937A0039
:1008500080917A0086FDFCCF80917800209179000C
:1008600090E0922B08958F929F92AF92BF92CF9279
:10087000DF92EF92FF926B017C010E9442024B01DA
:100880005C01C114D104E104F104F1F00E944202C0
:10089000DC01CB0188199909AA09BB09883E93405C
:1008A000A105B10570F321E0C21AD108E108F108F1
:1008B00088EE880E83E0981EA11CB11CC114D104DF
:1008C000E104F10419F7DDCFFF90EF90DF90CF90B6
:1008D000BF90AF909F908F9008951F920F920FB688
:1008E0000F9211242F933F938F939F93AF93BF93B6
:1008F0008091AA059091AB05A091AC05B091AD0592
:100900003091A50523E0230F2D3720F40196A11D7A
:10091000B11D05C026E8230F0296A11DB11D20932D
:10092000A5058093AA059093AB05A093AC05B09361
:10093000AD058091A6059091A705A091A805B0915D
:10094000A9050196A11DB11D8093A6059093A70549
:10095000A093A805B093A905BF91AF919F918F91E6
:100960003F912F910F900FBE0F901F9018951F92DF
:100970000F920FB60F9211242F933F934F935F93D3
:100980006F937F938F939F93AF93BF93EF93FF9357
:10099000E0910201F09103010995FF91EF91BF9160
:1009A000AF919F918F917F916F915F914F913F9107
:1009B0002F910F900FBE0F901F9018951F920F92BE
:1009C0000FB60F9211242F933F934F935F936F9322
:1009D0007F938F939F93AF93BF93EF93FF93E09198
:1009E0000001F09101010995FF91EF91BF91AF9145
:1009F0009F918F917F916F915F914F913F912F9137
:100A00000F900FBE0F901F9018951F920F920FB668
:100A10000F9211242F933F934F935F936F937F9384
:100A20008F939F93AF93BF93EF93FF938091A30511
:100A30009091A4058093B20080919F059091A005AC
:100A4000A091A105B091A2050196A11DB11D8093B1
:100A50009F059093A005A093A105B093A205809156
:100A60009F059091A005A091A105B091A20540918C
:100A70009B0550919C0560919D0570919E05841782
:100A80009507A607B70710F180919A0581111EC03E
:100A900081E080939A0580919F059091A005A09197
:100AA000A105B091A205841B950BA60BB70B8093F3
:100AB0009F059093A005A093A105B093A205E09196
:100AC0009805F0919905099510929A05FF91EF917B
:100AD000BF91AF919F918F917F916F915F914F9156
:100AE0003F912F910F900FBE0F901F901895FC0112
:100AF00080818F3FB9F090E0FC01EE0FFF1F8E0F59
:100B00009F1FFC01E15BF94F8181928133E0880FE7
:100B1000991F3A95E1F744E0969587954A95E1F754
:100B20000296089580E090E00895FC0190819C3049
:100B300088F5818128E830E0281B310987FD33954D
:100B4000220F331F220F331F6217730784F0828135
:100B500048E552E0481B510987FD5395440F551F46
:100B6000440F551F9B01461757070CF49A0122505A
:100B70003109220F331F4FB7F894892F90E0FC0101
:100B8000EE0FFF1F8E0F9F1FFC01E15BF94F3283B9
:100B900021834FBF08951F93CF93DF93EC01162F4E
:100BA00088818C3008F04EC061E0812F0E94E00304
:100BB0008881E82FF0E09F01220F331FE20FF31F1F
:100BC000E15BF94F1F739081907C192B1083198280
:100BD0001A826CE00E94911A9CE0899FB001112456
:100BE00040E050E09B01240F351FF901EE0FFF1F7D
:100BF0002E0F3F1FF901E15BF94F908196FD16C062
:100C00004F5F5F4F4C30510569F781110FC0109253
:100C1000800082E080938100109285001092840011
:100C2000B19A80916F00826080936F00E881F0E05C
:100C3000CF01880F991FE80FF91FE15BF94F808101
:100C4000806480838881DF91CF911F9108951F92E6
:100C50000F920FB60F9211242F933F934F935F93F0
:100C60006F937F938F939F93AF93BF93EF93FF9374
:100C70008091970587FF05C010928500109284002F
:100C80001BC020919705022E000C330B8091730638
:100C900090E02817390784F480919705082E000CFE
:100CA000990BFC01EE0FFF1F8E0F9F1FFC01E15BF4
:100CB000F94F808186FD15C0809197058F5F8093E5
:100CC000970520919705022E000C330B8091730637
:100CD00090E028173907C4F4809197058C3064F1AF
:100CE00013C080919705082E000C990BFC01EE0FA4
:100CF000FF1F8E0F9F1FFC01E15BF94F808160E0B9
:100D00008F730E94EC02D8CF80918400909185006F
:100D1000049680349C4918F480E49CE905C08091D5
:100D200084009091850004969093890080938800B8
:100D30008FEF809397053BC0209184003091850010
:100D400080919705082E000C990BFC01EE0FFF1FF8
:100D50008E0F9F1FFC01E15BF94F81819281820F11
:100D6000931F909389008093880080919705082EA7
:100D7000000C990BFC01EE0FFF1F8E0F9F1FFC0153
:100D8000E15BF94F808186FF12C080919705082EA4
:100D9000000C990BFC01EE0FFF1F8E0F9F1FFC0133
:100DA000E15BF94F808161E08F730E94EC02FF915B
:100DB000EF91BF91AF919F918F917F916F915F91D3
:100DC0004F913F912F910F900FBE0F901F9018954C
:100DD0000F931F93CF93DF938C01EA012115310507
:100DE00031F1DC01AF5BBF4F9C919F5F9C938C9175
:100DF0008630ECF4AC910A2E000CBB0B11978AE004
:100E00008A9FF0018B9FF00D1124E00FF11F3483B6
:100E1000238324E630E0CB01B9010E949D1A76833A
:100E20006583CE01B9010E94B11A72876187DF9193
:100E3000CF911F910F910895FC011182ED5BFF4F3F
:100E400011821082FC019C012E5C3F4F4FEF5FEF3F
:100E50005483438316821582108617821286118668
:100E6000148613863A96E217F30791F7FC01EF5BBD
:100E7000FF4F1082319610820895CF93DF93EC01DB
:100E80000E941C0760E08A810E94EC021882DF91B8
:100E9000CF910895FC0182850E941C04BC01990F2A
:100EA000880B990B0E945A1920E030EC4FE754E46C
:100EB0000E94B71820E030E44CE955E40E940F1A74
:100EC0009B01AC010E9446180E942919CB0108958C
:100ED000CF93DF93EC018C8D9D8D009749F120918C
:100EE0009005309191058217930741F190939105F8
:100EF000809390058C819D810E941C072C8D3D8DD7
:100F00004CE251E064E670E08C819D810E94E8062D
:100F100021E030E04CED55E060E070E08C819D8197
:100F20000E94E8068C819D81DF91CF910C94650B26
:100F30008C819D81DF91CF910C943D07DF91CF9102
:100F400008954F925F926F927F928F929F92AF928D
:100F5000BF92EF92FF920F931F93CF93DF93EC0119
:100F60001DAA1CAA8CA99DA901969DAB8CAB88A932
:100F700099A99BAB8AAB8EA59FA599AB88AB8CA595
:100F80009DA59FA78EA78AA59BA59DA78CA78F81AE
:100F90000E941C047C01BC016F5F7F4F7BA76AA786
:100FA0000CA91DA90630110508F488C080E090E066
:100FB0000E9458194B015C016CA57DA580E090E072
:100FC0000E9458199B01AC01C501B4010E94B718D9
:100FD0002B013C0128E431EE4AE75FE30E940A1A44
:100FE00018160CF06BC02CE53FE842E85FE3C30144
:100FF000B2010E94B21887FF61C06EA57FA580E094
:1010000090E00E9458199B01AC01C501B4010E94F7
:10101000B7182B013C0128E431EE4AE75FE30E9458
:101020000A1A18160CF04AC02CE53FE842E85FE3C4
:10103000C301B2010E94B21887FF40C068A979A914
:1010400080E090E00E9458199B01AC01C501B401F9
:101050000E94B7182B013C0128E431EE4AE75FE318
:101060000E940A1A181654F52CE53FE842E85FE39F
:10107000C301B2010E94B21887FF20C06AA97BA9F0
:1010800080E090E00E9458199B01AC01C501B401B9
:101090000E94B7184B015C0128E431EE4AE75FE398
:1010A0000E940A1A181654F42CE53FE842E85FE360
:1010B000C501B4010E94B21887FD0FC0C801880F96
:1010C000991F080F191F093C110538F463E070E0FF
:1010D00080E090E00E94330445CFC701DF91CF91BB
:1010E0001F910F91FF90EF90BF90AF909F908F90C6
:1010F0007F906F905F904F9008952F923F924F9204
:101100005F926F927F928F929F92AF92BF92CF9297
:10111000DF92EF92FF920F931F93CF93DF9300D054
:1011200000D0CDB7DEB79C838B83FC01828D938D7D
:101130000196938F828F86E0282E312C98EE492ECF
:1011400093E0592E612C712C8B819C810E94A10708
:101150008C01EB81FC81808591850E947705EB8174
:10116000FC81C188D288E12CF12C23893489A90122
:1011700060E070E09A01AB012C193D094E095F094E
:10118000092E000CAA0BBB0BBC01CD01685E73409D
:10119000810991090E94811AA30192010E94AB1753
:1011A000C20ED31EE41EF51EDA82C982B601DD0C22
:1011B000880B990B0E945A194B015C01B80180E021
:1011C00090E00E945819A50194010E94B7186B0184
:1011D0007C012FE832EC45E75FE30E940A1A1816FB
:1011E00054F428EB3EE145E85FE3C701B6010E94F5
:1011F000B21887FDC3C0F1E02F1A310809F0A4CF5F
:1012000081E291E00E94180BEB81FC8184A995A9F1
:1012100005970E945B0B86EA92E00E94180BEB8117
:10122000FC81E2A4F3A4B70180E090E00E94581989
:101230002B013C01EB81FC8184A595A58E0D9F1DA2
:1012400026A537A5820F931F20A931A9820F931FCE
:1012500022A933A9820F931F65E070E00E949D1AB6
:1012600080E090E00E9458199B01AC01C301B201DB
:101270000E94B71842E00E945B0CEB80FC80FAE20F
:10128000EF0EF11CCB80DC8084E3C80ED11C8CE215
:1012900091E00E94180BF701819191917F010E94CA
:1012A0005B0BEC14FD0499F70E94610B8EE291E058
:1012B0000E94180B86E090E00E945B0B86EA92E0A9
:1012C0000E94180B87E391E00E94180BEB81FC81D0
:1012D000668D778D80A191A14AE00E941A0B84E46B
:1012E00091E00E94180BC8010E942B0C85EC93E042
:1012F0000E94180BEB81FC81818992890E945B0B13
:1013000088EC93E00E94180BEB81FC81838994891F
:101310000E945B0B81E895E00E94180B8CE491E041
:101320000E94180B89819A810E942B0C88E591E01C
:101330000E94180BB801110F880B990B0E945A19C3
:10134000A50194010E94B71842E00E945B0C87E659
:1013500091E00E94180BEB81FC81808591850E94B1
:1013600077050E942B0C0E94610BEB81FC81848D20
:10137000958D0196958F848F80E001C081E00F905C
:101380000F900F900F90DF91CF911F910F91FF90D1
:10139000EF90DF90CF90BF90AF909F908F907F9015
:1013A0006F905F904F903F902F900895CF93DF9371
:1013B000EC018EA99FA98617970709F490C07FAB0F
:1013C0006EAB6730710508F08AC0FB01EC5CFF4F23
:1013D0000C94C51A8A819B810E943D078C819D8156
:1013E0000E943D076CE271E08A819B810E94900B14
:1013F0006CE271E080E090E00E9433040EC08A81CC
:101400009B810E943D078C819D810E943D076CE27B
:1014100071E08A819B810E94900B6CE271E08C816B
:101420009D81DF91CF910C94900B8A819B810E94CA
:101430003D078C819D810E943D076CED75E08A819E
:101440009B81EFCF8A819B810E943D078C819D818A
:101450000E943D070A80DB81C02DCE010E941C073F
:1014600021E030E04CE251E030C08C819D810E944F
:101470003D070A80DB81C02DCE010E941C0761E080
:101480008A810E94EC0281E0888329C00A80DB8186
:10149000C02DCE010E941C0721E030E044EF51E056
:1014A00068EB7BE014C08A819B810E943D078C81A0
:1014B0009D810E943D070A80DB81C02DCE010E94E4
:1014C0001C0721E030E040ED57E064E670E0CE011B
:1014D0000E94E806CE01DF91CF910C94650BDF915D
:1014E000CF910895DF92EF92FF920F931F93CF93C6
:1014F000DF93CDB7DEB72F970FB6F894DEBF0FBEE0
:10150000CDBF7C01D62E0E944A078C0108358BE1A5
:10151000180708F05DC0D11066C086E791E00E9410
:10152000180B0E94610B81E891E00E94180BC80122
:101530000E945B0B89EA91E00E94180BB80180E0E1
:1015400090E00E94581920E030E04AE754E40E94FD
:10155000B7188E010F5F1F4F21E043E00E94B714C0
:10156000C8010E94180B8DEA91E00E94180B0E949E
:10157000610B8FEA91E00E94180B0E94610B65E0FD
:1015800070E0C7010E94D60960E177E280E090E058
:101590000E94330466E070E0C7010E94D60983B759
:1015A000817F846083BF83B7816083BF83B781609D
:1015B00083BF889583B78E7F83BF83B78E7F83BFBA
:1015C000E89887E692E090930101809300010BC0B8
:1015D00000321C4150F4D11008C065E070E0C70132
:1015E0000E94D60902C081E001C080E091E0892715
:1015F0002F960FB6F894DEBF0FBECDBFDF91CF910F
:101600001F910F91FF90EF90DF900895009769F080
:10161000FC0101900020E9F73197AF01481B590BFD
:10162000BC0182EB95E00C94100180E090E00895FD
:101630000C94060B8F929F92AF92BF920F931F93C1
:10164000CF93DF93CDB7DEB7A1970FB6F894DEBF87
:101650000FBECDBF19A2423008F44AE08E010F5DE3
:101660001F4F842E912CA12CB12CA50194010E9416
:101670001418E62FB901CA0101501109EA3014F417
:10168000E05D01C0E95CD801EC93232B242B252BD2
:1016900061F7C8010E94060BA1960FB6F894DEBF51
:1016A0000FBECDBFDF91CF911F910F91BF90AF9033
:1016B0009F908F900895BC0180E090E04AE00C94E8
:1016C0001A0B84E695E00C94060BCF93DF93EC01A4
:1016D00060E08A810E94EC021882FE01ED5BFF4F00
:1016E0008FEF9FEF9183808331971082E0818AE0B2
:1016F000E802F0011124CF0103968C0F9D1F9EABD1
:101700008DABEC0FFD1F33968AE0DE01D79601907A
:101710000D928A95E1F781E08983DF91CF91089559
:10172000EF92FF920F931F93CF93DF938C01EB0106
:101730006436710520F484E6E82EF12C01C07B01AB
:10174000C8010E941C0721E030E0A701BE01C801CA
:101750000E94E806C801DF91CF911F910F91FF9081
:10176000EF900C94650BCF92DF92EF92FF920F9364
:101770001F93CF93DF93C82FD0E0611107C0CC0F28
:10178000DD1FCA58D94F598348835BC08A01BA010B
:1017900080E090E00E9458196B017C01CC0FDD1FA6
:1017A000FE01EA58F94F6081718180E090E00E946B
:1017B00058199B01AC01C701B6010E94B71820E07F
:1017C00030E048EC52E40E940F1A9B01AC0160E04B
:1017D00070E088EC92E40E9445186B017C0120E0E7
:1017E00030E0A9010E940A1A181624F0F7FAF094C2
:1017F000F7F8F09420E030E040EA50E4C701B60189
:101800000E94B2181816ECF487E695E00E94180BB7
:1018100085EC93E00E94180BC8010E945B0B88ECDA
:1018200093E00E94180BCA58D94F888199810E9471
:101830005B0B81E895E00E94180B0E94610B80E031
:1018400001C081E0DF91CF911F910F91FF90EF9048
:10185000DF90CF900895CF92DF92EF92FF92CF93D7
:10186000DF936C01990FEE08FF08F7FE19C06DE2D7
:1018700082EB95E00E94A601EC0166277727CB0159
:101880006C197D098E099F094AE00E941A0B8C0F82
:101890009D1FDF91CF91FF90EF90DF90CF90089543
:1018A0004AE0C701B601DF91CF91FF90EF90DF9042
:1018B000CF900C941A0B8F929F92AF92BF92CF92BF
:1018C000DF92EF92FF920F931F93CF93DF936B0101
:1018D0007C01142F9B01AC010E947C1A882319F013
:1018E00083E895E027C046015701E894B7F82FEF49
:1018F0003FEF4FE75FE7C501B4010E947C1A8111F9
:101900000DC02FEF3FEF4FE75FE7C501B4010E9425
:10191000B21818161CF487E895E00CC02FEF3FEFC3
:101920004FE75FE4C701B6010E940A1A181684F453
:101930008BE895E0DF91CF911F910F91FF90EF9091
:10194000DF90CF90BF90AF909F908F900C94060B3C
:101950002FEF3FEF4FE75FECC701B6010E94B218CF
:1019600087FDE6CF20E030E0A901C701B6010E9463
:10197000B21887FF0BC06DE282EB95E00E94A601D2
:10198000EC01F7FAF094F7F8F09402C0C0E0D0E070
:1019900000E060E070E080E09FE3101741F020E09D
:1019A00030E040E251E40E94B7180F5FF6CFA70184
:1019B00096010E9446186B017C010E9429194B0177
:1019C0005C014AE00E941A0BC80FD91F1123A9F12C
:1019D000C501B4010E9458199B01AC01C701B601B1
:1019E0000E9445186B017C016EE282EB95E00E943B
:1019F000A601C80FD91F20E030E040E251E4C70142
:101A0000B6010E940F1A4B015C010E9429196B015B
:101A10007C01CB010E945B0BC80FD91FB60180E08F
:101A200090E00E9458199B01AC01C501B4010E94CD
:101A300045186B017C011150F1F6CE01DF91CF9179
:101A40001F910F91FF90EF90DF90CF90BF90AF90DC
:101A50009F908F9008950F931F93CF93DF93EC0186
:101A60001982FC013396C596158214821186108660
:101A70003A96E817F907C1F71CAE1BAEFE01FD96BA
:101A8000138212828E010B5B1F4FF80111821082AC
:101A90006A831882CE010E941C0761E08A810E943D
:101AA000E00380919605811153C081E080939605F3
:101AB00082E390E0A0E0B0E080939B0590939C05CA
:101AC000A0939D05B0939E058AE393E090939905BA
:101AD00080939805809170008E7F80937000809134
:101AE000B0008C7F8093B0008091B100877F80939D
:101AF000B1008091B6008F7D8093B6008091700018
:101B00008D7F809370008091B10084608093B100DC
:101B10008091B1008C7F8093B10086E090E090933B
:101B2000A4058093A30510929F051092A005109222
:101B3000A1051092A20510929A058091A30590919B
:101B4000A4058093B2008091700081608093700042
:101B50008091940590919505F80191838083D093AD
:101B60009505C0939405DF91CF911F910F91089532
:101B7000CF93DF93CDB7DEB763970FB6F894DEBF90
:101B80000FBECDBF789484B5826084BD84B581607A
:101B900084BD85B5826085BD85B5816085BD809138
:101BA0006E00816080936E001092810080918100B0
:101BB00082608093810080918100816080938100A8
:101BC000809180008160809380008091B10084606A
:101BD0008093B1008091B00081608093B0008091CB
:101BE0007A00846080937A0080917A00826080938A
:101BF0007A0080917A00816080937A0080917A00E7
:101C0000806880937A001092C100E091C205F09143
:101C1000C30582E08083E091C205F091C305108284
:101C2000E091BE05F091BF051082E091C005F091F2
:101C3000C10580E180831092CA05E091C605F0914C
:101C4000C70586E08083E091C405F091C5058081D9
:101C500080618083E091C405F091C5058081886032
:101C60008083E091C405F091C50580818068808300
:101C7000E091C405F091C50580818F7D8083E0905F
:101C80007406F090750683E1D7011A968C931A9723
:101C900080E29CE11D969C938E931C9788E59BE1C6
:101CA0001F969C938E931E9781E050968C938DEC9B
:101CB00091E00E94180BF701808191810E94180B1E
:101CC0008AED91E00E94180B0E94610BD7011696D5
:101CD0006C911697062E000C770B18968D919C919F
:101CE00019970E94CB0560E0F70187810E94E0030D
:101CF00088EE93E0D70156969C938E93559780ED8E
:101D000097E058969C938E9357975B961C921E92E1
:101D10005A975D961C921E925C97F701168E178E4D
:101D200010A211A28FEF0E941C04BC01990F880B16
:101D3000990B611571058105910511F00E947015CF
:101D4000D7011B968C918F3F71F00E94C302892BA3
:101D500009F092C3F70183858F3F29F00E94C302E7
:101D6000892B09F48EC3D70150968C9150978130FE
:101D700079F0823011F459961C9267EB262E6BE0B5
:101D8000362E70E6472E7AEE572E612C712C49C103
:101D900060E070E0C7010E94D60985EE91E00E94E4
:101DA000180B0E94610B6CED75E0F7018085918541
:101DB0000E94950560E0C7010E94720A81E392E0EB
:101DC0000E94180B0E94610B6CED75E0D70118960C
:101DD0008D919C9119970E94950568EE73E080E0C3
:101DE00090E00E94330408EE13E0612C42E0742E70
:101DF00054EF452E55245394C7010E94A1076C014E
:101E00008115924021F0C3018C199D0902C080E028
:101E100090E0C016D10631F09601201B310B233023
:101E2000310520F44E974CF16801D6C08F319105F1
:101E300024F18201081B190B000F111F8CE692E0A0
:101E40000E94180BC114E2E0DE0621F0C3018C19D8
:101E50009D0902C080E090E00E945B0B84E892E064
:101E60000E94180BC8010E942B0C0E94610B63E0BA
:101E700070E0C7010E94D609AFC060E070E0C70102
:101E80000E94D60968E873E180E090E00E94330484
:101E900088EA92E00E94180B84EC92E00E94180BF2
:101EA0000E94610BC7010E94A107312C212C6AEA14
:101EB00075E0D70118968D919C9119970E94950510
:101EC00064EF71E080E090E00E943304812C912C5B
:101ED0000AEA15E0B801F701808591850E94950511
:101EE00064E670E080E090E00E943304C7010E9445
:101EF000A1075C0188169906D9F52394F5E0F2153F
:101F0000B8F563E070E0C7010E94D6098DEC92E05D
:101F10000E94180B84EC93E00E94180BC5010E94EC
:101F20005B0B88EC93E00E94180BC5010E945B0BD1
:101F300081E895E00E94180B0E94610B0C3D25E0A2
:101F40001207A1F00E3036E01307E1F00A3A45E03F
:101F5000140791F5912C06C00A3A35E0130719F5DC
:101F600099249394A501632D80E017C0912C06C09D
:101F70000C3DF5E01F0741F499249394A501632DCE
:101F800081E00BC0912C06C00E3026E0120721F72D
:101F900099249394A501632D82E00E94B30B8823BA
:101FA00059F0992049F0065F1F4F4501083156E06E
:101FB000150709F08FCF69C281EE94E00E94180BDB
:101FC00086E095E00E94180B0E94610B60ED77E0BF
:101FD00080E090E00E94330464EF71E080E090E0E4
:101FE0000E943304860108CF2FB7F8948091AA0588
:101FF0009091AB05A091AC05B091AD052FBFF70155
:1020000082A393A3A4A3B5A380898130F9F0823081
:1020100031F48FEE93E00E94180B0E94610B0E9436
:102020000F02E0907406F0907506F701818D811122
:10203000DBCF83ED93E00E94180B0E94610B60E1FF
:1020400077E280E090E00E943304E9CF8091AE0512
:102050009091AF05A091B005B091B105892B8A2B65
:102060008B2B09F04CC08DE294E00E94180B88E79E
:1020700090E00E942B0C81E494E00E94180B8AE906
:1020800093E00E94180BC7010E944A07BC0180E040
:1020900090E00E94581920E030E04AE754E40E94A2
:1020A000B7188E010F5F1F4F21E043E00E94B71465
:1020B000C8010E94180B8DEA91E00E94180B0E9443
:1020C000610BD70196961D921D921D921C929997B5
:1020D00092968D919D910D90BC91A02D8093AE050F
:1020E0009093AF05A093B005B093B10561E070E0A7
:1020F000C7010E94D60960E0C7010E94720A6AE027
:10210000C7010E94720AF70182A093A0A4A0B5A003
:102110008091AE059091AF05A091B005B091B10549
:10212000881A990AAA0ABB0A86A197A1A0A5B1A5F7
:1021300088159905AA05BB0508F06CC08115FDED51
:102140009F07FDE6AF07B10508F064C0C7010E9414
:102150006807F70186A197A1A0A5B1A5805A95416E
:10216000AF4FBF4F86A397A3A0A7B1A7C501B401E6
:10217000A30192010E941418CA01B9014AE00E9409
:102180001A0B8AE594E00E94180B8FE594E00E94F8
:10219000180B8AE993E00E94180BC7010E944A07B6
:1021A000BC0180E090E00E94581920E030E04AE74E
:1021B00054E40E94B7188E010F5F1F4F21E043E0E7
:1021C0000E94B714C8010E94180B8AE694E00E948E
:1021D000180BD7015E966D917D918D919C91919791
:1021E0004AE00E941A0B8EE794E00E94180BF70158
:1021F000828D938D0E945B0B81E994E00E94180B05
:10220000D7015C968D919C915D970E945B0B0E941B
:10221000610B82C09D5DAD46B10980369A4EA10525
:10222000B10508F079C080910401882309F44AC0FF
:10223000109204018CEA94E00E94180B0E94610B3A
:102240008FEB94E00E94180B0E94610BD7019296CD
:102250006D917D918D919C91959720E63AEE40E0AD
:1022600050E00E941418CA01B9014AE00E941A0BFA
:102270008AE594E00E94180B8FE594E00E94180B09
:102280008BE694E00E94180BF701668D778D80A194
:1022900091A14AE00E941A0B8EE794E00E94180B6D
:1022A000D7015A968D919C915B970E945B0B81E9B7
:1022B00094E00E94180BF701848D958D0E945B0BB2
:1022C0000E94610B6CED75E0D70118968D919C9181
:1022D00019970E949505D7011896ED91FC911997D1
:1022E000E081F0E0CF01880F991FE80FF91FE15B53
:1022F000F94F80818F7B808362E070E0C7010E948C
:10230000D60968E873E180E090E00E94330465E05C
:10231000C7010E94720AF5CFC7010E9468076CEDE1
:1023200075E0F701808591850E94950564E670E06F
:1023300080E090E00E9433040E94221529EE33E0F1
:1023400040E050E00E94AB174B015C01F8EE8F0EAD
:10235000F3E09F1EA11CB11CB401D70118968D910A
:102360009C9119970E94950564E670E080E090E0EA
:102370000E943304892819F0C7010E947D08F701E3
:10238000868D978DA0A1B1A10196A11DB11D868F4B
:10239000978FA0A3B1A36CED75E0808591850E9415
:1023A000950564EF71E080E090E00E9433040AEA52
:1023B00015E06101C01AD10AD70118968D919C9140
:1023C00019970E947705C816D9060CF445C0F70185
:1023D000808591850E947705BC016F5F7F4FD70193
:1023E00018968D919C9119970E94950565E070E073
:1023F00080E090E00E9433040E94221525EF31E036
:1024000040E050E00E94AB176A30710581059105EC
:102410009CF6C7010E947D08CFCFD70118968D91F9
:102420009C9119970E947705BC0161507109F701D1
:10243000808591850E9495050E94221525E630E051
:1024400040E050E00E94AB176A30710581059105AC
:102450001CF4C7010E947D08F701808591850E94C8
:10246000770508171907CCF202531109063BF3E070
:102470001F0709F09ECFD3CD82E0D70150968C93F1
:1024800069CC81E0F701808B6ECC339445E0341247
:102490000ECD64EF71E080E090E00E94330481E4AF
:1024A00095E00E94060B0E94610B64E873E0D7017F
:1024B00018968D919C9119970E94950564EF71E093
:1024C00080E090E00E9433040EE813E0B801D701E9
:1024D00018968D919C9119970E94950564E670E07D
:1024E00080E090E00E943304065F1F4F023FB3E09C
:1024F0001B0761F768EE73E0F701808591850E9404
:1025000095050FE010E064E670E080E090E00E9446
:10251000330401501109B9F7C7010E94A107D7017F
:1025200052969C938E9351978DEF92E00E94180BD8
:10253000F701808591850E9477050E942B0C8FE022
:1025400093E00E94180B83E193E00E94180BD701DF
:1025500051968D919C9152970E945B0B0E94610B4A
:102560006CE677E0F701808591850E94950564EF20
:1025700071E080E090E00E94330406E717E0B801C4
:10258000D70118968D919C9119970E94950564E644
:1025900070E080E090E00E943304065F1F4F0A3D28
:1025A000B7E01B0761F760ED77E0F7018085918563
:1025B0000E9495050FE010E064E670E080E090E096
:1025C0000E94330401501109B9F7C7010E94A10705
:1025D000D70154969C938E9353978DEF92E00E946F
:1025E000180BF701808591850E9477050E942B0CBE
:1025F0008FE093E00E94180B8CE293E00E94180B8E
:10260000D70153968D919C9154970E945B0B0E9429
:10261000610B68EB7BE080E090E00E943304F701FF
:1026200083899489218932898217930729F0821B33
:10263000930B84369105D8F485E493E00E94180B3F
:10264000D70151968D919C9152970E945B0B88EC1B
:1026500093E00E94180BF701838994890E945B0B19
:102660000E94610B64E070E0C7010E94D60982E716
:1026700093E00E94180B82E893E00E94180B8AE90D
:1026800093E00E94180BC7010E944A07BC0180E03A
:1026900090E00E94581920E030E04AE754E40E949C
:1026A000B7188E010F5F1F4F21E043E00E94B7145F
:1026B000C8010E94180B8DEA91E00E94180B0E943D
:1026C000610B0CE91FEFD7015796CD90DC9058971E
:1026D00053968D909C9054970C39BFEF1B0729F4AB
:1026E000F701C588D6888188928882EA93E00E94A3
:1026F000180BC8010E942B0C80EB93E00E94180B72
:102700000E94610B6CED75E0D70118968D919C913C
:1027100019970E94950568EE73E080E090E00E94B2
:1027200033048FB7F8942091AA053091AB054091FE
:10273000AC055091AD05288B398B4A8B5B8B8FBFD5
:10274000B601D70118968D919C9119970E94950515
:102750006AE070E080E090E00E943304A12CB12C8C
:10276000C7010E94A107BC01990F880B990B0E9419
:102770005A192B013C01C501B4010E9458199B0153
:10278000AC01C301B2010E94B7182B013C0126E63F
:1027900036E646E65FE30E940A1A18160CF72DEC9F
:1027A0003CEC4CE85FE3C301B2010E94B21887FF22
:1027B000D7CF8FB7F8948090AA059090AB05A090E2
:1027C000AC05B090AD058FBF288939894A895B89EE
:1027D000821A930AA40AB50A84EB93E00E94180BAC
:1027E000C8010E942B0C87EC93E00E94180BC601D5
:1027F0000E945B0B8AEC93E00E94180B4AE0C50133
:10280000B4010E941A0B8CEE93E00E94180B0E94F8
:10281000610B08531F4F0C3231E0130709F053CFFF
:1028200068EB7BE080E090E00E94330481E0D70118
:1028300059968C93A2CAEF92FF921F93CF93DF9386
:102840001092B5051092B40588EE93E0A0E0B0E0D8
:102850008093B6059093B705A093B805B093B905DA
:1028600083E191E09093B3058093B20585EC90E00D
:102870009093BF058093BE0584EC90E09093C105D2
:102880008093C00580EC90E09093C3058093C205CF
:1028900081EC90E09093C5058093C40582EC90E0B4
:1028A0009093C7058093C60586EC90E09093C90588
:1028B0008093C8051092CB051092CC051092CD05DF
:1028C0001092CE0588E390E00E94CB1AEC011FEF36
:1028D0001A871B8781E0888B198E87E490E00E941D
:1028E000CB1A7C0162E00E942B0DFB82EA8287E416
:1028F00090E00E94CB1A7C0164E00E942B0DFD82C7
:10290000EC8283E090E00E94CB1A209173062C3079
:10291000A0F431E0320F30937306FC01208330E0E5
:10292000F901EE0FFF1F2E0F3F1FF901E15BF94F79
:1029300028EB3BE03283218302C0FC01108399879E
:10294000888786E08E8382E18F8387E090E09FAB6B
:102950008EAB8EE595E099838883D0937506C093FE
:102960007406DF91CF911F91FF90EF900895EF9241
:102970000F931F93CF93DF93E80147FD02C034E02C
:1029800001C034E1042E000C550B57FF03C05195D4
:1029900041955109E32E022F242FAE010E94791593
:1029A000CE01DF91CF911F910F91EF9008958F92FB
:1029B0009F92AF92BF92CF92DF92EF92FF92CF930E
:1029C000DF93EC01688179818A819B8161157105B2
:1029D0008105910521F464E279ED8BE597E02DE125
:1029E00033EF41E050E00E94AB1749015A019B01CF
:1029F000AC01A7EAB1E40E94CA176B017C01ACEEFE
:102A0000B4EFA50194010E94D817DC01CB018C0D15
:102A10009D1DAE1DBF1DB7FF03C00197A109B048A2
:102A200088839983AA83BB83BC01CD019F77DF9103
:102A3000CF91FF90EF90DF90CF90BF90AF909F909D
:102A40008F9008958F929F92AF92BF92CF92DF9214
:102A5000EF92FF926091050170910601809107014C
:102A600090910801611571058105910521F464E2D9
:102A700079ED8BE597E02DE133EF41E050E00E94E6
:102A8000AB1749015A019B01AC01A7EAB1E40E94CE
:102A9000CA176B017C01ACEEB4EFA50194010E9452
:102AA000D817DC01CB018C0D9D1DAE1DBF1DB7FFDE
:102AB00003C00197A109B0488093050190930601D6
:102AC000A0930701B0930801BC01CD019F77FF904F
:102AD000EF90DF90CF90BF90AF909F908F90089530
:102AE000609305017093060180930701909308019C
:102AF0000895A9E0B0E0EFE7F5E10C94E3176A016F
:102B0000122FB02E2BE3201720F0FF24F394F00EA9
:102B100002C02CE3F22E0F2D27E0AE014F5F5F4F76
:102B20000E94D316BC014981842F8970813031F015
:102B3000E1FC06C0E0FE06C090E205C09DE203C0D5
:102B40009BE201C090E05E2D507143FF3CC09111AB
:102B500002C083E001C084E0811718F4212F281BF4
:102B600001C020E051110BC0F601822F30E2882312
:102B700019F031938150FBCFC20ED11C20E0992374
:102B800029F0D6019C93F60131966F01C601039698
:102B9000E2FE0AC03EE4D6013C9341E411964C9318
:102BA000119712963C9306C03EE6F601308341E64B
:102BB00041833283FC01322F40E2332309F442C0C7
:102BC00041933150FACF42FF44C0911102C083E0DB
:102BD00001C084E0811718F4212F281B01C020E0D8
:102BE00051110BC0F601822F30E2882319F0319386
:102BF0008150FBCFC20ED11C20E0992329F0D601D1
:102C00009C93F60131966F01C6010396E2FE0BC05C
:102C100039E4D6013C933EE411963C93119736E497
:102C200012963C9307C039E6F60130833EE63183C5
:102C300036E63283FC01322F40E2332319F0419310
:102C40003150FBCFFC01E20FF11D10828EEF9FEFA0
:102C5000A6C021E030E0911102C020E030E016165D
:102C600017061CF4FB01319602C0E1E0F0E02E0FE4
:102C70003F1FBB2021F0EB2DF0E0319602C0E0E0D9
:102C8000F0E02E0F3F1FE12FF0E02E173F071CF45E
:102C9000121B212F01C020E08E2D887159F4F601FE
:102CA000822F30E2882319F031938150FBCFC20E7E
:102CB000D11C20E0992329F0D6019C93F60131968E
:102CC0006F0151110BC0F601822F90E3882319F098
:102CD00091938150FBCFC20ED11C20E00F2D060F27
:102CE0009A81342F307144FF03C0913309F40150AD
:102CF000101624F4093018F008E001C001E0AB011F
:102D000077FF02C040E050E0FB01E41BF50BA1E0BF
:102D1000B0E0AC0FBD1FEA0FFB1F8EE2A82E4B01E7
:102D2000801A91080B2D10E01195019511094F3F64
:102D3000BFEF5B0721F4D601AC9211966D016417C9
:102D400075072CF08416950614F4818101C080E388
:102D5000415051093196D60111967D014017510716
:102D600024F0D6018C936701E2CF6417750739F41C
:102D7000963320F4953319F4311101C081E3F60143
:102D80008083F701822F90E2882319F0919381507C
:102D9000FBCFF701E20FF11D108280E090E0299651
:102DA000ECE00C94FF17283008F027E03327DA0115
:102DB000990F311D87FD916000966105710539F409
:102DC00032602E5F3D9330E32A95E1F708959F3FEF
:102DD00030F080387105610509F03C5F3C5F3D9340
:102DE000913008F08068911DDF93CF931F930F936C
:102DF000FF92EF92192F987F9695E92F96959695C9
:102E0000E90FFF27E053FF4F99273327EE24FF24D4
:102E1000A701E70105900894079428F4360FE71EF0
:102E2000F81E491F511D660F771F881F991F0694B2
:102E3000A1F70590079428F4E70EF81E491F561FC6
:102E4000C11D770F881F991F661F0694A1F7059073
:102E5000079428F4F80E491F561FC71FD11D880F6D
:102E6000991F661F771F0694A1F70590079420F419
:102E7000490F561FC71FD81F990F661F771F881F3E
:102E80000694A9F784911095177041F0D695C795CF
:102E900057954795F794E7941A95C1F7E6E7F0E060
:102EA00068941590159135916591959105907FE203
:102EB0007395E118F10A430B560BC90BD009C0F703
:102EC000E10CF11E431F561FC91FD01D7EF4703345
:102ED00011F48A95E6CFE894015030F0080F0AF417
:102EE0000027021708F4202F2395022F7A3328F0A9
:102EF00079E37D932A95E9F710C07D932A9589F6A9
:102F0000069497956795379517951794E118F10AE8
:102F1000430B560BC90BD00998F023957E917395FE
:102F20007A3308F070E37C932013B8F77E917061D8
:102F30007D9330F0839571E37D9370E32A95E1F7FB
:102F40001124EF90FF900F911F91CF91DF9199275E
:102F500087FD90950895052E97FB1EF400940E941E
:102F6000C21757FD07D00E94141807FC03D04EF477
:102F70000C94C21750954095309521953F4F4F4F77
:102F80005F4F089590958095709561957F4F8F4F15
:102F90009F4F08950E943618A59F900DB49F900DE5
:102FA000A49F800D911D11240895B7FF0C94CA179A
:102FB0000E94CA17821B930B08952F923F924F9243
:102FC0005F926F927F928F929F92AF92BF92CF92B9
:102FD000DF92EF92FF920F931F93CF93DF93CDB7C2
:102FE000DEB7CA1BDB0B0FB6F894DEBF0FBECDBF3A
:102FF00009942A88398848885F846E847D848C840B
:103000009B84AA84B984C884DF80EE80FD800C8113
:103010001B81AA81B981CE0FD11D0FB6F894DEBFF6
:103020000FBECDBFED010895A1E21A2EAA1BBB1B56
:10303000FD010DC0AA1FBB1FEE1FFF1FA217B30784
:10304000E407F50720F0A21BB30BE40BF50B661F9A
:10305000771F881F991F1A9469F76095709580955E
:1030600090959B01AC01BD01CF010895A29FB001D5
:10307000B39FC001A39F700D811D1124911DB29FAC
:10308000700D811D1124911D08955058BB27AA274A
:103090000E945D180C94D0190E94C21938F00E9449
:1030A000C91920F039F49F3F19F426F40C94BF1984
:1030B0000EF4E095E7FB0C94B919E92F0E94E11991
:1030C00058F3BA17620773078407950720F079F45D
:1030D000A6F50C94031A0EF4E0950B2EBA2FA02D32
:1030E0000B01B90190010C01CA01A0011124FF27B5
:1030F000591B99F0593F50F4503E68F11A16F040B0
:10310000A22F232F342F4427585FF3CF46953795AE
:103110002795A795F0405395C9F77EF41F16BA0B73
:10312000620B730B840BBAF09150A1F0FF0FBB1F21
:10313000661F771F881FC2F70EC0BA0F621F731F6A
:10314000841F48F4879577956795B795F7959E3FC7
:1031500008F0B0CF9395880F08F09927EE0F979558
:10316000879508950E94951908F481E008950E94BA
:10317000CB180C94D0190E94C91958F00E94C2199A
:1031800040F029F45F3F29F00C94B91951110C94C7
:10319000041A0C94BF190E94E11968F39923B1F342
:1031A000552391F3951B550BBB27AA27621773076D
:1031B000840738F09F5F5F4F220F331F441FAA1F01
:1031C000A9F335D00E2E3AF0E0E832D091505040BD
:1031D000E695001CCAF72BD0FE2F29D0660F771F6B
:1031E000881FBB1F261737074807AB07B0E809F051
:1031F000BB0B802DBF01FF2793585F4F3AF09E3FD6
:10320000510578F00C94B9190C94041A5F3FE4F35B
:10321000983ED4F3869577956795B795F7959F5F18
:10322000C9F7880F911D9695879597F90895E1E064
:10323000660F771F881FBB1F621773078407BA07C3
:1032400020F0621B730B840BBA0BEE1F88F7E0951E
:1032500008950E94E91988F09F5798F0B92F99278F
:10326000B751B0F0E1F0660F771F881F991F1AF071
:10327000BA95C9F714C0B13091F00E94031AB1E0B9
:1032800008950C94031A672F782F8827B85F39F0B8
:10329000B93FCCF3869577956795B395D9F73EF40A
:1032A00090958095709561957F4F8F4F9F4F0895B2
:1032B000E89409C097FB3EF49095809570956195D0
:1032C0007F4F8F4F9F4F9923A9F0F92F96E9BB2786
:1032D0009395F695879577956795B795F111F8CF02
:1032E000FAF4BB0F11F460FF1BC06F5F7F4F8F4F6D
:1032F0009F4F16C0882311F096E911C0772321F063
:103300009EE8872F762F05C0662371F096E8862FFA
:1033100070E060E02AF09A95660F771F881FDAF751
:10332000880F9695879597F90895990F0008550F7E
:10333000AA0BE0E8FEEF16161706E807F907C0F03B
:1033400012161306E407F50798F0621B730B840B43
:10335000950B39F40A2661F0232B242B252B21F41D
:1033600008950A2609F4A140A6958FEF811D811DBD
:10337000089597F99F6780E870E060E008959FEFF7
:1033800080EC089500240A941616170618060906FC
:10339000089500240A9412161306140605060895CB
:1033A000092E0394000C11F4882352F0BB0F40F453
:1033B000BF2B11F460FF04C06F5F7F4F8F4F9F4F93
:1033C000089557FD9058440F551F59F05F3F71F015
:1033D0004795880F97FB991F61F09F3F79F087957C
:1033E0000895121613061406551FF2CF4695F1DF05
:1033F00008C0161617061806991FF1CF8695710595
:10340000610508940895E894BB2766277727CB01C8
:1034100097F908950E94951908F48FEF08950E9476
:10342000221A0C94D0190E94C21938F00E94C919AE
:1034300020F0952311F00C94B9190C94BF191124A4
:103440000C94041A0E94E11970F3959FC1F3950F33
:1034500050E0551F629FF001729FBB27F00DB11D18
:10346000639FAA27F00DB11DAA1F649F6627B00DA8
:10347000A11D661F829F2227B00DA11D621F739F91
:10348000B00DA11D621F839FA00D611D221F749F9F
:103490003327A00D611D231F849F600D211D822FE6
:1034A000762F6A2F11249F5750409AF0F1F088230D
:1034B0004AF0EE0FFF1FBB1F661F771F881F91503A
:1034C0005040A9F79E3F510580F00C94B9190C9417
:1034D000041A5F3FE4F3983ED4F386957795679599
:1034E000B795F795E7959F5FC1F7FE2B880F911D64
:1034F0009695879597F908950E949519880B990BD1
:103500000895DB018F939F930E94CA17BF91AF91DB
:10351000A29F800D911DA39F900DB29F900D11242D
:103520000895991B79E004C0991F961708F0961B1F
:10353000881F7A95C9F780950895AA1BBB1B51E196
:1035400007C0AA1FBB1FA617B70710F0A61BB70B13
:10355000881F991F5A95A9F780959095BC01CD01B8
:10356000089597FB072E16F4009407D077FD09D035
:103570000E949D1A07FC05D03EF4909581959F4FBF
:103580000895709561957F4F0895EE0FFF1F059088
:10359000F491E02D09940F931F93CF93DF93823022
:1035A000910510F482E090E0E0918206F0918306AC
:1035B00020E030E0A0E0B0E0309719F14081518187
:1035C0000281138148175907C8F08417950769F4D9
:1035D000109731F012960C93129713961C9327C0F4
:1035E000009382061093830622C02115310519F03D
:1035F0004217530718F49A01BD01EF01DF01F801EA
:10360000DBCF21153105F9F0281B390B24303105AA
:1036100080F48A819B816115710521F0FB01938300
:10362000828304C09093830680938206FE013296C3
:1036300044C0FE01E20FF31F8193919322503109A0
:10364000398328833AC02091800630918106232B4C
:1036500041F420910B0130910C01309381062093AD
:1036600080062091090130910A012115310541F4AC
:103670002DB73EB740910D0150910E01241B350B23
:10368000E0918006F0918106E217F307A0F42E1B6B
:103690003F0B2817390778F0AC014E5F5F4F2417B6
:1036A000350748F04E0F5F1F509381064093800608
:1036B0008193919302C0E0E0F0E0CF01DF91CF91E0
:1036C0001F910F910895CF93DF93009709F481C064
:1036D000FC01329713821282A0918206B091830678
:1036E000109781F420813181820F931F20918006F1
:1036F000309181062817390751F5F0938106E09340
:10370000800667C0ED0120E030E0CE17DF0740F40F
:103710004A815B819E0141155105F1F0EA01F5CF27
:10372000D383C28340815181840F951FC817D90765
:1037300059F488819981840F951F02969183808323
:103740008A819B81938382832115310529F4F0932B
:103750008306E09382063DC0E901FB83EA83499139
:103760005991C40FD51FEC17FD0761F48081918139
:10377000840F951F0296E901998388838281938142
:103780009B838A83E0E0F0E012968D919C911397E1
:10379000009719F0FD01DC01F7CF8D919C911197F5
:1037A0009D012E5F3F4F820F931F20918006309125
:1037B00081062817390769F4309729F41092830697
:1037C0001092820602C013821282B0938106A093E7
:1037D0008006DF91CF91089581E090E0F8940C94F9
:0637E000F11BF894FFCF7D
:1037E60067026702010100000000008406800000F5
:1037F600000000A60110013E01ED016F014D0161BF
:1038060001506F7469506F733A2023002C004552A3
:10381600524F523A2023002053657373696F6E200E
:10382600233A200020506F74693A20002043616CCF
:1038360063506F74693A200020436865636B526574
:1038460073756C743A20002050756C736520696E30
:103856002075733A200041636874756E67202121D4
:10386600004552524F523A20566572736F72677511
:103876006E67737370616E6E756E67207A75206EF3
:103886006965647269673A20006D562F00560054C8
:1038960065737466756E6B74696F6E207769726492
:1038A600206465616B74697669657274005365722C
:1038B600766F5465737465722000202D20537461F1
:1038C6007274757000536572766F54657374202D2B
:1038D600204D6F64652030202D20536572766F2051
:1038E60077697264206175746F6D6174697363685A
:1038F60020C3BC62657220506F746920506F736973
:1039060074696F6E20C3BC6265727072C3BC6674E4
:10391600005072C3BC66756E6720536572766F2D54
:10392600506F736974696F6E7373656E736F72200F
:10393600696E20536572766F2D4D697474656C706F
:103946006F736974696F6E202E2E2E004665686C43
:103956006572204D697474656C706F736974696FF4
:103966006E202800293A20626974746520536572B6
:10397600766F686562656C207A656E7472696572C9
:10398600656E202E2E2E20004D697474656C706F46
:10399600736974696F6E20657272656963687420F5
:1039A6002E2E2E00776172746520357300455252B3
:1039B6004F523A20506F736974696F6E73656E73F8
:1039C6006F72206265776567742073696368206E1D
:1039D60069636874206B6F7272656B7400202020B7
:1039E600536572766F2D5369676E616C3A20007568
:1039F60073200020657267696274206D696E2E20DF
:103A0600506F74692D576572743A2000206572678D
:103A1600696274206D61782E20506F74692D576528
:103A260072743A20004552524F523A204B616C69EB
:103A36006272696572756E672064657320506F7473
:103A460069206665686C67657363686C6167656E37
:103A56002000536572766F205370656564746573D4
:103A660074002062656920426174746572696573C9
:103A760070616E6E756E673A2000205562617474CF
:103A86003D002020205370656564746573742000C2
:103A9600253A20002020202020456E64706F73692F
:103AA60074696F6E202800252F007573293A2069E6
:103AB6006E20004552524F523A20696E6974282989
:103AC60020776974682070726F626C656D7300533D
:103AD6006572766F54657374202D204D6F64652072
:103AE60031202D20536572766F20506F736974698B
:103AF6006F6E207769726420C3BC62657220506F56
:103B060074692067657374657565727400537461B2
:103B160072746520536572766F2D54657374202810
:103B2600006D696E293A2042617474657269657325
:103B360070616E6E756E673A20006D696E20005476
:103B46006573742D496E666F3A005620232D5465B1
:103B560073742D53657373696F6E73203A00206D0D
:103B6600697420232D4D657373756E67656E203AF3
:103B760000206461766F6E206D69742041627765FE
:103B8600696368756E67656E203A2000456E642D20
:103B96005465737465726765626E69733A20003D99
:103BA6003D3D3D3D3D3D3D3D3D3D3D3D3D3D3D3D3F
:103BB6003D3D3D3D3D3D3D3D3D3D3D3D3D3D3D3D2F
:103BC600004552524F523A2053656E736F727072AF
:103BD600C3BC66756E67206665686C6765736368E7
:103BE6006C6167656E002E2E2E207769656465729E
:103BF600686F6C65204D697474656C706F73697459
:103C0600696F6E73646574656B74696F6E20756E2B
:103C1600642053656E736F727072C3BC66756E678F
:103C2600004B616C696272696572756E67206465C6
:103C36007320506F74692D57656765733A00563265
:103C46002E3030000D0A005741524E3A20636F6DF8
:103C560070617265506F736974696F6E44617461E7
:103C66002829006E616E00696E66006F7666000038
:00000001FF
